:100000000C9451010C9479010C9479010C947901B0
:100010000C9479010C9479010C9479010C94790178
:100020000C9479010C9479010C9479010C94CC17FF
:100030000C9479010C9479010C9479010C94790158
:100040000C942A170C9479010C949A170C94741739
:100050000C9479010C9479010C9479010C94790138
:100060000C9488180C947901084AD73B3BCE016E5A
:1000700084BCBFFDC12F3D6C74319ABD56833DDAFF
:100080003D00C77F11BED9E4BB4C3E916BAAAABE0E
:10009000000000803F07634236B79BD8A71A396833
:1000A0005618AEBAAB558C1D3CB7CC5763BD6DED41
:1000B000FD753EF6177231BF000000803F0800005A
:1000C00000BE922449123EABAAAA2ABECDCCCC4C8B
:1000D0003E00000080BEABAAAAAA3E00000000BFFE
:1000E000000000803F0000000000084178D3BB43BF
:1000F00087D1133D190E3CC3BD4282AD2B3E68EC47
:100100008276BED98FE1A93E4C80EFFFBE01C4FFCD
:100110007F3F0000000000004E414E494E495459B7
:10012000494E46CDCCCC3D0AD7233C17B7D13877C2
:10013000CC2B329595E6241FB14F0A0000204100D8
:1001400000C84200401C4620BCBE4CCA1B0E5AAE22
:10015000C59D7400407A10F35A00A0724E18090031
:1001600010A5D4E80000E87648170000E40B54021C
:100170000000CA9A3B000000E1F505000080969857
:1001800000000040420F000000A0860100000010A7
:100190002700000000E803000000006400000000E9
:1001A000000A00000000000100000000002C76D8CA
:1001B00088DC674F0823DFC1DFAE59E1B1B796E5B0
:1001C000E3E453C63AE651997696E8E6C28426EB14
:1001D000898C9B62ED407C6FFCEFBC9C9F40F2BA27
:1001E000A56FA5F490055A2AF75C936B6CF9676DBF
:1001F000C11BFCE0E40D47FEF520E6B500D0ED9014
:100200002E0300943577050080841E080000204EE0
:100210000A000000C80C333333330F986E12831179
:1002200041EF8D2114893BE65516CFFEE6DB18D150
:10023000844B381BF77C1D901DA4BBE42420328422
:10024000725E228100C9F124ECA1E53D2700000087
:1002500000240027002A0000000000250028002BB1
:10026000000404040404040404020202020202035F
:100270000303030303010204081020408001020469
:1002800008102001020408102000000008000201EC
:1002900000000304070000000000000000003F1AF7
:1002A000F42211241FBECFEFD8E0DEBFCDBF14E093
:1002B000A0E0B1E0E8E7FDE502C005900D92AC3C9E
:1002C000B107D9F727E0ACECB4E001C01D92AB3226
:1002D000B207E1F711E0C0E5D1E004C02197FE01CB
:1002E0000E94A02CCF34D107C9F70E94F71B0C94B1
:1002F000AF2E0C94000090E0FC01E757FD4F2491D5
:10030000FC01EB58FD4F3491FC01EF59FD4FE49196
:10031000EE23C9F0222339F0233001F1A8F4213073
:1003200019F1223029F1F0E0EE0FFF1FE95AFD4FDD
:10033000A591B4918FB7F894EC91611126C03095D6
:100340003E233C938FBF08952730A9F02830C9F091
:10035000243049F7809180008F7D03C08091800018
:100360008F7780938000DFCF84B58F7784BDDBCF1C
:1003700084B58F7DFBCF8091B0008F778093B000E4
:10038000D2CF8091B0008F7DF9CF3E2BDACF3FB72F
:10039000F8948091290590912A05A0912B05B091A0
:1003A0002C0526B5A89B05C02F3F19F00196A11D6D
:1003B000B11D3FBFBA2FA92F982F8827BC01CD01AF
:1003C000620F711D811D911D42E0660F771F881F0E
:1003D000991F4A95D1F708958F929F92AF92BF923D
:1003E000CF92DF92EF92FF924B015C010E94C70116
:1003F0006B017C010E94C7016C197D098E099F0960
:10040000683E734081059105A8F321E0821A9108A6
:10041000A108B10888EEC80E83E0D81EE11CF11CCB
:1004200081149104A104B10429F7FF90EF90DF90AB
:10043000CF90BF90AF909F908F9008952FB7F89472
:1004400060912505709126058091270590912805DA
:100450002FBF089508950895AF92BF92CF92DF9273
:10046000EF92FF920F931F93CF93DF936C017B0169
:100470008B01040F151FEB015E01AE18BF08C017FA
:10048000D10759F06991D601ED91FC910190F0816D
:10049000E02DC6010995892B79F7C501DF91CF9130
:1004A0001F910F91FF90EF90DF90CF90BF90AF9092
:1004B0000895FC01538D448D252F30E0842F90E06A
:1004C000821B930B541710F0CF960895019708954F
:1004D000FC01918D828D981761F0A28DAE0FBF2F18
:1004E000B11D5D968C91928D9F5F9F73928F90E06E
:1004F00008958FEF9FEF0895FC01918D828D9817DD
:1005000031F0828DE80FF11D858D90E008958FEF19
:100510009FEF0895FC01918D228D892F90E0805CE2
:100520009F4F821B91098F73992708958FE995E05A
:100530000E948A0221E0892B09F420E0822F08958D
:1005400080E090E0892B29F00E94960281110C94A2
:1005500000000895FC01A48DA80FB92FB11DA35A66
:10056000BF4F2C91848D90E001968F739927848FD3
:10057000A689B7892C93A089B1898C9183708064F6
:100580008C93938D848D981306C00288F389E02D97
:1005900080818F7D80830895EF92FF920F931F9348
:1005A000CF93DF93EC0181E0888F9B8D8C8D981326
:1005B0001AC0E889F989808185FF15C09FB7F89432
:1005C000EE89FF896083E889F9898081837080647E
:1005D00080839FBF81E090E0DF91CF911F910F91C9
:1005E000FF90EF900895F62E0B8D10E00F5F1F4FD8
:1005F0000F731127E02E8C8D8E110CC00FB607FCE7
:10060000FACFE889F989808185FFF5CFCE010E9474
:10061000AA02F1CFEB8DEC0FFD2FF11DE35AFF4F36
:10062000F0829FB7F8940B8FEA89FB898081806202
:10063000CFCFCF93DF93EC01888D8823B9F0AA89BF
:10064000BB89E889F9898C9185FD03C0808186FD8D
:100650000DC00FB607FCF7CF8C9185FFF2CF8081DC
:1006600085FFEDCFCE010E94AA02E9CFDF91CF91A5
:100670000895DC01EC91EC3090F511968C91119776
:1006800028E830E0281B310987FD3395220F331FFE
:10069000220F331F6217730784F012968C9128E59E
:1006A00032E0281B310987FD3395220F331F220FBB
:1006B000331F621773070CF49B0122503109220F7C
:1006C000331F4FB7F8948E2F90E0FC01EE0FFF1F01
:1006D000E80FF91FE45CF94F328321834FBF08957F
:1006E000CF93DF93DC018C918C3008F06DC0CB018F
:1006F000FB01EB58FD4F24918F599D4FFC018491D4
:10070000882399F090E0880F991FFC01E35BFD4F6F
:10071000C591D491FC01E95AFD4F859194918FB711
:10072000F894E881E22BE8838FBF8C91282F30E08A
:10073000F901EE0FFF1FE20FF31FE45CF94F962F54
:100740009F736081607C692B608311961C92119766
:1007500012961C9212972CE0622F0E94942C829F7A
:10076000B001112430E020E0AB01420F531FFA0129
:10077000EE0FFF1FE40FF51FE45CF94F908196FD2B
:1007800016C02F5F3F4F2C30310571F781110FC01C
:100790001092800082E08093810010928500109278
:1007A0008400B19A80916F00826080936F00EC9119
:1007B0008E2F90E0FC01EE0FFF1FE80FF91FE45CA5
:1007C000F94F8081806480838C91DF91CF9108956F
:1007D0002091ED04260F3327331F21323105ECF42D
:1007E00020917505FC0190E080E0243069F082E002
:1007F0000895A091ED042191AC0143535B4FA40FE8
:10080000B52FB11D2C930196861798F38091ED04B6
:10081000680F6093ED0480E0089581E008951092E0
:10082000750581E08093740510924F0561E082E1C7
:100830000E947B0161E083E10E947B01E9EBF0E033
:1008400080818E7F808380818D7F808388E4809308
:10085000B80085E48093BC000895CF93DF9391E0C6
:100860009093CC048823B9F0C091B800D091BA001D
:100870008091BC008A7B8093BC0060E082E10E9492
:100880007B0160E083E10E947B010E940F04D09312
:10089000BA00C093B800DF91CF9108958F929F92D4
:1008A000AF92BF92CF92DF92EF92FF920F931F937E
:1008B000CF93DF93D0919E05D13208F0D7C0182F87
:1008C000C0919D050E94C7016B017C018091750557
:1008D00081116BC082E080937505109374058FEFD2
:1008E0008093730510927205D0937105ADE7B5E062
:1008F000E1E5F5E080E0D81391C0109250058091B9
:100900005005CC0FC82BC093500580914F05813006
:1009100009F088C010924F050E94C7016B017C014D
:10092000809150058093BB00809177059091780568
:10093000A0917905B0917A05892B8A2B8B2BA1F098
:100940000E94C701009177051091780520917905E3
:1009500030917A056C197D098E099F0906171707D2
:100960002807390708F442C08091BC0083FDD8CF26
:1009700085EC8093BC000E94C7016B017C018091D3
:100980007505823009F450C0809173058F3F09F4DA
:100990006FC080917305803209F46CC0809173053B
:1009A000803309F469C084E026C080917705909176
:1009B0007805A0917905B0917A05892B8A2B8B2B2C
:1009C00009F484CF0E94C701809077059090780544
:1009D000A0907905B0907A056C197D098E099F0960
:1009E00086169706A806B90608F070CF809176059E
:1009F0000E942D0485E010927C0510929E051092B5
:100A00007B05DF91CF911F910F91FF90EF90DF90C9
:100A1000CF90BF90AF909F908F9008959D919193AC
:100A20008F5F69CF85EEA5CF80917705909178058E
:100A3000A0917905B0917A05892B8A2B8B2B09F42B
:100A40009ECF0E94C70100917705109178052091F3
:100A5000790530917A056C197D098E099F09061771
:100A600017072807390708F08ACFC0CF81E0C3CF26
:100A700080E0C1CF82E0BFCF83E0BDCF1F93CF9393
:100A8000DF93162FC9ECD6E0A981BA819B8121E0C2
:100A900020937B0590939D0510927C0510929E05F6
:100AA000ED91FC9111970190F081E02D682FCD011F
:100AB000099589819A81DC01ED91FC910190F08189
:100AC000E02D612F099581E0DF91CF911F910C946A
:100AD0004E040895E0912E0580912D05E81730F41D
:100AE000F0E0E15DFA4F808190E008958FEF9FEF95
:100AF000089590912E0580912D052FEF3FEF9817C7
:100B000048F4E92FF0E0E15DFA4F208130E09F5F8B
:100B100090932E05C901089580912D0590912E0581
:100B2000891B990B0895CF92DF92EF92FF920F935A
:100B30001F93CF93DF937C01CB018A0120917B052A
:100B4000222389F0EB016B01C40ED51ECC15DD0507
:100B500069F06991D701ED91FC910190F081E02D50
:100B6000C7010995F3CF642F0E94E803C801DF9104
:100B7000CF911F910F91FF90EF90DF90CF9008954C
:100B8000CF93DF931F92CDB7DEB7698320917B05AA
:100B90002223F9F020919E05203258F021E030E028
:100BA000FC013383228390E080E00F90DF91CF91AE
:100BB000089580917C05E82FF0E0E358FA4F998181
:100BC00090838F5F80937C0580939E0581E090E009
:100BD000ECCF61E0CE0101960E94E803F7CF90E0F0
:100BE00080E008954F925F926F927F928F929F92D2
:100BF000AF92BF92CF92DF92EF92FF920F931F932B
:100C0000CF93DF93CDB7DEB72E970FB6F894DEBF44
:100C10000FBECDBF8091CA069091CB062091CC0625
:100C200031E030937B0520939D0510927C05109256
:100C30009E05DC01ED91FC910190F081E02D6BE3CC
:100C4000099580E00E944E041091CC060E94C701D5
:100C50004B015C0180917505811166C081E0809334
:100C60007505809374059FEF90937305109272053C
:100C70009DE0909371058093500580915005110F70
:100C8000182B1093500580914F05813009F0A9C1B0
:100C900010924F050E94C7014B015C0180915005E5
:100CA0008093BB008091770590917805A09179059C
:100CB000B0917A05892B8A2B8B2BA1F00E94C7015A
:100CC00000917705109178052091790530917A058A
:100CD000681979098A099B09061717072807390730
:100CE00008F443C08091BC0083FDD8CF85EC80938D
:100CF000BC000E94C7014B015C01809175058130E9
:100D000009F471C1809172058E3008F08EC1809116
:100D10007205A1E5B5E0EFE2F5E090E0981751F13A
:100D20002D9121939F5FFACF80917705909178055F
:100D3000A0917905B0917A05892B8A2B8B2B09F428
:100D400089CF0E94C7014090770550907805609048
:100D5000790570907A05681979098A099B09461600
:100D600057066806790608F075CF809176050E94CF
:100D70002D0480E010922E0580932D058E010F5FCB
:100D80001F4F6E01BFE0CB0ED11C8091CA0690911F
:100D9000CB06DC01ED91FC910284F385E02D0995F1
:100DA000B82E8091CA069091CB06DC01ED91FC91A2
:100DB0000284F385E02D0995E12C8E299B29F80109
:100DC000819391938F01CE16DF06F9F6C090D1067C
:100DD000D090D206E090D306F090D40669817A8153
:100DE000072E000C880B990B0E943A27A701960149
:100DF0000E94C2292091E1063091E2064091E3066B
:100E00005091E4060E94E3286093F1067093F20685
:100E10008093F3069093F4066B817C81072E000C7F
:100E2000880B990B0E943A27A70196010E94C229BC
:100E30002091E5063091E6064091E7065091E806DC
:100E40000E94E3286093F5067093F6068093F706F8
:100E50009093F8068091C90661E06827681B770BBC
:100E6000072E000C880B990B0E943A274B015C015E
:100E70006D817E81072E000C880B990B0E943A270A
:100E80009B01AC01C501B4010E949927A7019601FD
:100E90000E94C2292091E9063091EA064091EB06B2
:100EA0005091EC060E94E3286093F9067093FA06CD
:100EB0008093FB069093FC066F817885072E000CCB
:100EC000880B990B0E943A2720E030EF41E456E46A
:100ED0000E94E42820E030E04AEA53E40E94C2295C
:100EE0006093ED067093EE068093EF069093F00604
:100EF000C090CD06D090CE06E090CF06F090D00600
:100F000069857A85072E000C880B990B0E943A2779
:100F1000A70196010E94C2292091D5063091D606DC
:100F20004091D7065091D8060E94E3286093FD06B1
:100F30007093FE068093FF06909300076B857C8577
:100F4000072E000C880B990B0E943A27A7019601E7
:100F50000E94C2292091D9063091DA064091DB0621
:100F60005091DC060E94E32860930107709302070A
:100F700080930307909304076D857E85072E000CF0
:100F8000880B990B0E943A27A70196010E94C2295B
:100F90002091DD063091DE064091DF065091E0069B
:100FA0000E94E32860930507709306078093070764
:100FB000909308072E960FB6F894DEBF0FBECDBFF4
:100FC000DF91CF911F910F91FF90EF90DF90CF9025
:100FD000BF90AF909F908F907F906F905F904F9059
:100FE000089585EE84CE8091770590917805A09143
:100FF0007905B0917A05892B8A2B8B2B09F47DCE4C
:101000000E94C7010091770510917805209179051C
:1010100030917A05681979098A099B09061717071B
:101020002807390708F069CEA0CE8EE072CE4F9225
:101030005F926F927F928F929F92AF92BF92CF9268
:10104000DF92EF92FF92CF93DF93CDB7DEB72E976B
:101050000FB6F894DEBF0FBECDBF1092D50610922A
:10106000D6061092D7061092D8061092D906109282
:10107000DA061092DB061092DC061092DD06109262
:10108000DE061092DF061092E0061092E106109242
:10109000E2061092E3061092E4061092E506109222
:1010A000E6061092E7061092E8061092E906109202
:1010B000EA061092EB061092EC0684EF91E09E8710
:1010C0008D8719861A861B861C8619821A821B82B6
:1010D0001C821D821E821F821886C12CD12C760193
:1010E00046015701260137010E94F2052091F106C1
:1010F0003091F2064091F3065091F406C301B2011B
:101100000E94E4282B013C012091F5063091F6065F
:101110004091F7065091F806C501B4010E94E428F9
:101120004B015C0120E030E040E85FE36091F906AC
:101130007091FA068091FB069091FC060E94E328CC
:101140009B01AC01C701B6010E94E4286B017C0140
:101150002091FD063091FE064091FF065091000758
:101160006D817E818F8198850E94E4286D837E83C6
:101170008F839887209101073091020740910307E0
:101180005091040769817A818B819C810E94E428B7
:1011900069837A838B839C832091050730910607AE
:1011A000409107075091080769857A858B859C8552
:1011B0000E94E42869877A878B879C8761E070E0CA
:1011C00080E090E00E94EC018D859E8501979E87CE
:1011D0008D87892B09F088CF20E030E04AEF53E477
:1011E000C301B2010E94C2296093E1067093E20636
:1011F0008093E3069093E40620E030E04AEF53E466
:10120000C501B4010E94C2296093E5067093E60609
:101210008093E7069093E80620E030E04AEF53E43D
:10122000C701B6010E94C2296093E9067093EA06DD
:101230008093EB069093EC0620E030E04AEF53E415
:101240006D817E818F8198850E94C2296093D50629
:101250007093D6068093D7069093D80620E030E0AE
:101260004AEF53E469817A818B819C810E94C22973
:101270006093D9067093DA068093DB069093DC06C0
:1012800020E030E04AEF53E469857A858B859C85C0
:101290000E94C2296093DD067093DE068093DF060C
:1012A0009093E0062E960FB6F894DEBF0FBECDBF2A
:1012B000DF91CF91FF90EF90DF90CF90BF90AF90F4
:1012C0009F908F907F906F905F904F900895FC015A
:1012D00001900020E9F73197AF01481B590BBC0181
:1012E0008FE995E00C942C02CF93DF93FC014481AD
:1012F0005581608171818FE995E00E942C02EC019B
:1013000082E391E00E9467098C0F9D1FDF91CF91CE
:1013100008958F929F92AF92BF920F931F93CF9396
:10132000DF93CDB7DEB7A1970FB6F894DEBF0FBE3F
:10133000CDBF19A2423008F44AE08E010F5D1F4F65
:10134000842E912CB12CA12CA50194010E94B228CD
:10135000E62FB901CA01EA30F4F4E05DD801EE935A
:101360008D01232B242B252B79F790E080E010971B
:1013700019F0CD010E946709A1960FB6F894DEBF5F
:101380000FBECDBFDF91CF911F910F91BF90AF9056
:101390009F908F900895E95CE1CFCF92DF92EF921A
:1013A000FF92CF93DF936B017C016DE28FE995E0B3
:1013B0000E94CC02EC0166277727CB016C197D09CE
:1013C0008E099F094AE00E9489098C0F9D1FDF91B9
:1013D000CF91FF90EF90DF90CF9008954F925F9262
:1013E0006F927F928F929F92AF92BF92CF92DF9235
:1013F000EF92FF920F931F93CF93DF93CDB7DEB79A
:101400002C970FB6F894DEBF0FBECDBF0E94F20539
:10141000C090F906D090FA06E090FB06F090FC062A
:1014200021E030E03A83298320E030E0A901C701C0
:10143000B6010E94E92A87FF02C01A82198201E0E0
:1014400010E020E030E0A901C701B6010E94332777
:1014500087FD02C010E000E069817A81601B710B9A
:10146000072E000C880B990B0E943A276D837E8310
:101470008F839887A7019601C701B6010E9499271B
:101480002B013C01C090F106D090F206E090F306EB
:10149000F090F406A7019601C701B6010E949927B2
:1014A000A30192010E94E4280E944C2B9B01AC01F5
:1014B0008090F5069090F606A090F706B090F8069A
:1014C0006D817E818F8198850E9499279B01AC0157
:1014D000C501B4010E94632921EE3EE245E652E4D3
:1014E0000E9499276093090770930A0780930B075E
:1014F00090930C07A5019401C501B4010E9499279E
:10150000A30192010E94E4280E944C2B9B01AC0194
:10151000C701B6010E946329905821EE3EE245E6DC
:1015200052E40E94992760930D0770930E078093F1
:101530000F07909310070E941E026B017C0180919F
:101540001D0790911E07A0911F07B0912007A701CA
:101550009601281B390B4A0B5B0BCA01B9010E948B
:1015600038272FE632E143E85AE30E9499274B01DE
:101570005C01C0921D07D0921E07E0921F07F092F7
:1015800020078091210790912207A0912307B09115
:10159000240789839A83AB83BC83409009075090CA
:1015A0000A0760900B0770900C072091FD063091A0
:1015B000FE064091FF0650910007C501B4010E944C
:1015C00099272091110730911207409113075091EC
:1015D00014070E94E428A30192010E94E3286B01F2
:1015E0007C0120E030E044E353E40E94E92A18162D
:1015F0003CF420E030E044EB53E4C701B601EDCF0A
:1016000020E030E044E353ECC701B6010E943327E9
:1016100087FF0BC020E030E044EB53E4C701B60184
:101620000E94E4286B017C01EBCF29813A814B8138
:101630005C8160E070E080E89FE30E94E3286987B6
:101640007A878B879C87A7019601C301B2010E940C
:10165000E42829813A814B815C810E9499276B01A2
:101660007C0129853A854B855C85C301B2010E94C6
:1016700099279B01AC01C701B6010E94E4286B01C8
:101680007C0120E030E044E353E40E94E92A18168C
:101690004CF420E030E044EB53E4C701B6010E9473
:1016A000E328EDCF20E030E044E353ECC701B6017E
:1016B0000E94332787FF0BC020E030E044EB53E467
:1016C000C701B6010E94E4286B017C01EBCFC092F8
:1016D0001107D0921207E0921307F092140740907E
:1016E0000D0750900E0760900F0770901007209123
:1016F00001073091020740910307509104076D8163
:101700007E818F8198850E949927A50194010E946E
:10171000992720911507309116074091170750918E
:1017200018070E94E428A30192010E94E3286B019C
:101730007C0120E030E044EB52E40E94E92A1816D4
:101740003CF420E030E044E353E4C701B601EDCFC0
:1017500020E030E044EB52ECC701B6010E94332791
:1017600087FF0BC020E030E044E353E4C701B6013B
:101770000E94E4286B017C01EBCFA7019601C30115
:10178000B2010E94E42829813A814B815C810E9448
:1017900099276B017C01A301920169857A858B856C
:1017A0009C850E9499279B01AC01C701B6010E944C
:1017B000E4286B017C0120E030E044EB52E40E941D
:1017C000E92A18164CF420E030E044E353E4C70162
:1017D000B6010E94E328EDCF20E030E044EB52EC6C
:1017E000C701B6010E94332787FF0BC020E030E01D
:1017F00044E353E4C701B6010E94E4286B017C0175
:10180000EBCFC0921507D0921607E0921707F0921F
:10181000180720910507309106074091070750915E
:101820000807C501B4010E9499272091190730913A
:101830001A0740911B0750911C070E94E4286093EF
:10184000190770931A0780931B0790931C072C9617
:101850000FB6F894DEBF0FBECDBFDF91CF911F91C1
:101860000F91FF90EF90DF90CF90BF90AF909F903F
:101870008F907F906F905F904F900895FC018081D2
:101880009181009711F00C941A2360E070E0CB0175
:101890000895FB0144815581FC0124813581241781
:1018A000350778F080819181009759F0FB016081C4
:1018B00071816115710529F00E94A12E21E0892B0B
:1018C00009F020E0822F0895FC0124813581232B2B
:1018D00039F421E0FB018081882349F020E007C032
:1018E000808191810E94912E21E0892BB9F7822F6E
:1018F00008950F931F93CF93DF93EC018881998113
:10190000009759F02A813B812617370730F081E094
:10191000DF91CF911F910F9108958B016F5F7F4FE2
:101920000E94CB2D009759F0998388831B830A83EB
:101930002C813D81232B59F7FC011082E8CF80E0F8
:10194000E7CFEF92FF920F931F93CF93DF93611531
:10195000710541F480E0DF91CF911F910F91FF90CD
:10196000EF90089541155105B1F07B01EC010C8118
:101970001D81040F151FB8010E94790C882351F3B3
:10198000288139818C819D81B701820F931F0E942C
:101990009A2E1D830C8381E0DECFCF93DF93EC0181
:1019A00088819981009711F00E94422D1982188236
:1019B0001D821C821B821A82DF91CF910895CF93E2
:1019C000DF93EC01FB0101900020E9F73197AF01B3
:1019D000461B570B0E94A10C811103C0CE010E942F
:1019E000CD0CCE01DF91CF910895CF93DF93EC0121
:1019F000FB0144815581608171810E94A10C81119C
:101A000003C0CE010E94CD0CCE01DF91CF9108958D
:101A1000EF92FF920F931F93CF93DF93EC017B0123
:101A20008A01BA010E94790C81110BC0CE010E947B
:101A3000CD0CCE01DF91CF911F910F91FF90EF90D0
:101A400008951D830C83B701888199810E949A2E85
:101A5000F0CFFB0101900020E9F73197AF01461B61
:101A6000570B0C94080D0F931F93CF93DF93CDB7B3
:101A7000DEB762970FB6F894DEBF0FBECDBF8C0104
:101A8000CB01F80111821082138212821582148216
:101A90004AE0BE016F5F7F4F0E944123BE016F5F2E
:101AA0007F4FC8010E94290D62960FB6F894DEBFE1
:101AB0000FBECDBFDF91CF911F910F910895FB0114
:101AC000DC0111961C921E9213961C921E92129784
:101AD00015961C921E9214978617970749F06081FD
:101AE00071816115710521F0448155810C94080DB7
:101AF0000895FC01118210821382128215821482D1
:101B0000FB0101900020E9F73197AF01461B570B0D
:101B10000C94080DAF92BF92CF92DF92EF92FF929A
:101B20000F931F93CF93DF935C016B017A01DB016D
:101B300014960D911C910417150720F48F2D780130
:101B4000042F182F64E371E0C5010E94790DF6019E
:101B5000C481D581EC16FD06E0F40C171D0708F4CE
:101B6000E801D601ED91FC911197EC0FFD1F10815A
:101B700010826D917C916E0D7F1DC50161157105FF
:101B8000A1F00E94290DF60180819181C80FD91F13
:101B90001883C501DF91CF911F910F91FF90EF90B6
:101BA000DF90CF90BF90AF9008950E94CD0CEBCF07
:101BB000FC0180819181009711F00C94422D0895D1
:101BC000CF93DF93CDB7DEB72C970FB6F894DEBF77
:101BD0000FBECDBF68EE73E08AEB96E00E9439033A
:101BE00068EE73E087EB96E00E94390381E0809312
:101BF000220565E371E0CE0101960E94790DBE01D8
:101C00006F5F7F4FCE0107960E945F0D69E371E021
:101C1000CE0107960E94DF0C0E947409CE01079640
:101C20000E94D80DCE0101960E94D80D2C960FB6B9
:101C3000F894DEBF0FBECDBFDF91CF9108954F92D4
:101C40005F926F927F928F929F92AF92BF92CF924C
:101C5000DF92EF92FF920F931F93CF93DF93CDB755
:101C6000DEB760970FB6F894DEBF0FBECDBF6091B0
:101C700004017091050180910601909107019B017B
:101C8000AC010E94902B81111CC06091AF06709135
:101C9000B0068091B1069091B2069B01AC010E9402
:101CA000902B81110EC06091B3067091B4068091A3
:101CB000B5069091B6069B01AC010E94902B88233B
:101CC000A1F165E371E0CE0101960E94790DBE019C
:101CD0006F5F7F4FCE0107960E945F0D64E571E054
:101CE000CE0107960E94DF0C0E947409CE01079670
:101CF0000E94D80DCE0101960E94D80D60960FB6B5
:101D0000F894DEBF0FBECDBFDF91CF911F910F9131
:101D1000FF90EF90DF90CF90BF90AF909F908F900B
:101D20007F906F905F904F900895E0900001F09049
:101D30000101B7010F2C000C880B990B0E943A2768
:101D40004B015C01662777276E197F09072E000C6F
:101D5000880B990B0E943A272B013C01AC019B0197
:101D6000C501B4010E94332718160CF06AC04092D6
:101D7000A5065092A6066092A7067092A8068092C9
:101D8000A9069092AA06A092AB06B092AC068091EA
:101D9000AD06882309F455C0009191061091920672
:101DA000F801C080D180E280F380A7019601C501CF
:101DB000B4010E94332787FF26C0F80180829182F8
:101DC000A282B3828090990690909A06A0909B067A
:101DD000B0909C06C090A906D090AA06E090AB06F1
:101DE000F090AC06A7019601C501B4010E94E92A52
:101DF0001816BCF4C0929906D0929A06E0929B06FF
:101E0000F0929C061EC0A7019601C301B2010E9478
:101E1000E92A1816BCF6F801408251826282738268
:101E2000D1CFC090A506D090A606E090A706F0906E
:101E3000A806A7019601C501B4010E94332787FDBA
:101E4000D9CF409004015090050160900601709038
:101E5000070120E030E0A901C301B2010E9433274D
:101E600087FD4CCF8090AF069090B006A090B10651
:101E7000B090B20620E030E0A901C501B4010E9493
:101E8000332787FD3BCFC090B306D090B406E090D7
:101E9000B506F090B60620E030E0A901C701B60112
:101EA0000E94332787FD2ACF81E020918D06309153
:101EB0008E062130310509F080E08093AE06409215
:101EC0007306509274066092750670927606809240
:101ED000770690927806A0927906B0927A06C09220
:101EE0007B06D0927C06E0927D06F0927E066091A1
:101EF000A1067091A2068091A3069091A4060E946B
:101F0000382720E030E04AE754E40E94C2296D8778
:101F10007E878F87988B40927F06509280066092D2
:101F20008106709282069B01AC01C501B4010E943A
:101F300099274B015C018092830690928406A092BF
:101F40008506B09286062D853E854F855889C70146
:101F5000B6010E94C2296B017C01C0928706D09213
:101F60008806E0928906F0928A0680918B0690910D
:101F70008C06019709F0C2CEA301920160E070E0E7
:101F8000CB010E94E32860937F06709380068093C4
:101F9000810690938206A501940160E070E0CB0178
:101FA0000E94E328609383067093840680938506DD
:101FB00090938606A701960160E070E0CB010E9435
:101FC000E328609387067093880680938906909330
:101FD0008A0694CE85ED8093BC0080917705909120
:101FE0007805A0917905B0917A050796A11DB11DDC
:101FF00023E0B695A795979587952A95D1F72091D7
:10200000BC0024FD03C0109275050895409177052A
:10201000509178056091790570917A05452B462B92
:10202000472B69F30097A105B10541F02AE22A95F3
:10203000F1F700C00197A109B109E1CF80917605C0
:102040000C942D040F931F93CF93DF938C01EB011E
:102050000E945A288883C80101960E945A288983C1
:10206000CE01DF91CF911F910F910895CF92DF9212
:10207000EF92FF920F931F93CF93DF93EB017B01BE
:1020800024E0E20EF11C8B016C01C61AD70AC601CE
:10209000800F911F0E945A28F80181938F01EE153D
:1020A000FF05A9F7CE01DF91CF911F910F91FF900E
:1020B000EF90DF90CF9008954F925F926F927F9252
:1020C0008F929F92AF92BF92CF92DF92EF92FF9248
:1020D0000F931F93CF93DF93FB01048115810115AB
:1020E000110571F1EC01CB010E943E0C6B017C01EA
:1020F000B801110F880B990B0E943A279B01AC0184
:1021000060E070E080E291E40E94F62A4B015C01FD
:10211000688179818A819B810E946A2A2B013C0116
:10212000C701B6010E943A27A50194010E94C22965
:10213000A30192010E94E428688379838A839B83A8
:10214000DF91CF911F910F91FF90EF90DF90CF9093
:10215000BF90AF909F908F907F906F905F904F90C7
:1021600008954F925F926F927F928F929F92AF925B
:10217000BF92CF92DF92EF92FF92CF93DF93EC0169
:102180004A015B01488059806A807B80C301B201AB
:102190000E946A2A6B017C01C501B4010E943A27A2
:1021A0004B015C01A7019601C301B2010E94E32823
:1021B0009B01AC01C501B4010E94E42868837983C6
:1021C0008A839B83DF91CF91FF90EF90DF90CF9038
:1021D000BF90AF909F908F907F906F905F904F9047
:1021E0000895FF920F931F93CF93DF93CDB7DEB780
:1021F00062970FB6F894DEBF0FBECDBF8C0162E8C8
:1022000071E0CE0101960E94790DBE016F5F7F4F94
:10221000C8010E94490CF82ECE0101960E94D80DEB
:10222000FF2009F43FC080912305882359F11092C3
:10223000220565E371E0CE0107960E94790DBE018B
:10224000695F7F4FCE0101960E945F0D68E871E0E3
:10225000CE0101960E94DF0C0E947409CE01019606
:102260000E94D80DCE0107960E94D80D62960FB637
:10227000F894DEBF0FBECDBFDF91CF911F910F91BC
:10228000FF90089565E371E0CE0107960E94790DF5
:10229000BE01695F7F4FCE0101960E945F0D67E925
:1022A00071E0D6CF63EC71E0CE0101960E94790D0A
:1022B000BE016F5F7F4FC8010E94490CF82ECE010E
:1022C00001960E94D80DFF20D1F143E050E0B80103
:1022D000CE0101960E948A0DCE0101960E943E0C0D
:1022E000AB01BC0184E091E00E94B110CE010196E7
:1022F0000E94D80D0E941F0E4091040150910501CB
:10230000609106017091070124E0CE0101960E94C0
:10231000B51967EC71E0CE0107960E94790DBE01F8
:102320006F5F7F4FCE0107960E94F50C0E947409E3
:10233000CE0107960E94D80DCE01019695CF60ED93
:1023400071E0CE0101960E94790DBE016F5F7F4F53
:10235000C8010E94490CF82ECE0101960E94D80DAA
:10236000FF2079F044E050E0B801CE0101960E94D0
:102370008A0DBE016F5F7F4F84E091E00E945C1088
:10238000B5CF65ED71E0CE0101960E94790DBE01D9
:102390006F5F7F4FC8010E94490CF82ECE01019655
:1023A0000E94D80DFF2039F143E050E0B801CE0182
:1023B00001960E948A0DCE0101960E943E0CAB014F
:1023C000BC018FEA96E00E94B110CE0101960E94F6
:1023D000D80D0E941F0E4091AF065091B00660913B
:1023E000B1067091B20624E0CE0101960E94B519A3
:1023F00069ED71E090CF62EE71E0CE0101960E942E
:10240000790DBE016F5F7F4FC8010E94490CF82E05
:10241000CE0101960E94D80DFF2079F044E050E0F3
:10242000B801CE0101960E948A0DBE016F5F7F4FF9
:102430008FEA96E00E945C10C8CF67EE71E0CE0193
:1024400001960E94790DBE016F5F7F4FC8010E9407
:10245000490CF82ECE0101960E94D80DFF2039F1CB
:1024600043E050E0B801CE0101960E948A0DCE01F2
:1024700001960E943E0CAB01BC0183EB96E00E94EA
:10248000B110CE0101960E94D80D0E941F0E4091FE
:10249000B3065091B4066091B5067091B60624E07B
:1024A000CE0101960E94B5196BEE71E034CF64EF56
:1024B00071E0CE0101960E94790DBE016F5F7F4FE2
:1024C000C8010E94490CF82ECE0101960E94D80D39
:1024D000FF2079F044E050E0B801CE0101960E945F
:1024E0008A0DBE016F5F7F4F83EB96E00E945C1008
:1024F000C8CF69EF71E0CE0101960E94790DBE014F
:102500006F5F7F4FC8010E94490CF82ECE010196E3
:102510000E94D80DFF2009F455C046E050E0B801F4
:10252000CE0101960E948A0DCE0101960E943E0CBA
:1025300097FD3EC046E050E0B801CE0107960E94EC
:102540008A0DCE0107960E943E0C653F71408105C1
:1025500091059CF546E050E0B801CE010D960E9431
:102560008A0DCE010D960E943E0C81E011E0709321
:10257000010160930001882321F0CE010D960E9495
:10258000D80D112321F0CE0107960E94D80DCE015F
:1025900001960E94D80D0E941F0E6091000170915B
:1025A0000101CE0101960E94330D60E072E0B3CECE
:1025B00080E010E070E060E0DACF80E011E064EFEE
:1025C00071E0D5CF6BE072E0CE0101960E94790DEB
:1025D000BE016F5F7F4FC8010E94490CF82ECE01EB
:1025E00001960E94D80DFF2009F456C04AE050E041
:1025F000B801CE0101960E948A0DCE0101960E947B
:102600003E0C683E734081059105E4F14AE050E0DC
:10261000B801CE0107960E948A0DCE0107960E944E
:102620003E0C613D7740810591058CF54AE050E014
:10263000B801CE010D960E948A0DCE010D960E9422
:102640003E0C81E011E07093030160930201882346
:1026500021F0CE010D960E94D80D112321F0CE015C
:1026600007960E94D80DCE0101960E94D80D609168
:10267000020170910301CE0101960E94330D66E1C3
:1026800072E049CE80E010E068EE73E0DCCF80E0DD
:1026900011E060ED77E0D7CF65E272E0C8010E94FB
:1026A000640C882319F010921905E0CD60E372E004
:1026B000C8010E94640C882321F081E080931905F1
:1026C000D5CD6CE372E0CE0101960E94790DBE017A
:1026D0006F5F7F4FC8010E94490CF82ECE01019612
:1026E0000E94D80DFF2009F479C047E050E0B801FE
:1026F000CE0101960E948A0D89819A81009709F086
:1027000045C047E050E0B801CE0107960E948A0D0F
:102710008F819885009709F04AC047E050E0B801E2
:10272000CE010D960E948A0D8D859E85009709F039
:1027300050C021E011E060E070E0CB0160936706DB
:10274000709368068093690690936A06222321F0AD
:10275000CE010D960E94D80D112321F0CE010796CF
:102760000E94D80DCE0101960E94D80D40916706B7
:10277000509168066091690670916A0622E0CE0168
:1027800001960E94B51964E472E0C5CD0E9416233B
:1027900020E030E040EF51EC0E94332787FFB1CFBB
:1027A00020E010E060E070E080EF91ECC7CF0E9485
:1027B000162320E030E040EF51E40E94E92A181689
:1027C0000CF0ABCF20E011E060E070E080EF91E42E
:1027D000B5CF0E94162321E011E0B0CF61E572E091
:1027E000C8010E94640C882371F08091230588231E
:1027F00039F00E94170887E592E00E94A71936CDAC
:102800008BE692E0FACF67E872E0C8010E94640CA0
:10281000882309F463C18EE892E00E94A719809191
:1028200023056FE771E0882311F06BE771E0CE01BB
:1028300001960E94790D6BE972E0CE0107960E9425
:10284000790DBE016F5F7F4FCE0107960E94F50C98
:102850000E947409CE0107960E94D80DCE01019600
:102860000E94D80D809122056FE771E0882311F056
:102870006BE771E0CE0101960E94790D67EA72E084
:10288000CE0107960E94790DBE016F5F7F4FCE018A
:1028900007960E94F50C0E947409CE0107960E94CB
:1028A000D80DCE0101960E94D80D40916F0650912F
:1028B0007006609171067091720622E0CE01019659
:1028C0000E94B51963EB72E0CE0107960E94790D64
:1028D000BE016F5F7F4FCE0107960E94F50C0E94EC
:1028E0007409CE0107960E94D80DCE0101960E9470
:1028F000D80D40916B0650916C0660916D067091F9
:102900006E0622E0CE0101960E94B5196BEB72E0D3
:10291000CE0107960E94790DBE016F5F7F4FCE01F9
:1029200007960E94F50C0E947409CE0107960E943A
:10293000D80DCE0101960E94D80D4091040150910E
:102940000501609106017091070124E0CE01019616
:102950000E94B51968EC72E0CE0107960E94790DCD
:10296000BE016F5F7F4FCE0107960E94F50C0E945B
:102970007409CE0107960E94D80DCE0101960E94DF
:10298000D80D4091AF065091B0066091B10670919C
:10299000B20624E0CE0101960E94B5196DEC72E0FA
:1029A000CE0107960E94790DBE016F5F7F4FCE0169
:1029B00007960E94F50C0E947409CE0107960E94AA
:1029C000D80DCE0101960E94D80D4091B3065091CA
:1029D000B4066091B5067091B60624E0CE0101966A
:1029E0000E94B51962ED72E0CE0107960E94790D42
:1029F000BE016F5F7F4FCE0107960E94F50C0E94CB
:102A00007409CE0107960E94D80DCE0101960E944E
:102A1000D80D4091670650916806609169067091E3
:102A20006A0622E0CE0101960E94B51967ED72E0B8
:102A3000CE0107960E94790DBE016F5F7F4FCE01D8
:102A400007960E94F50C0E947409CE0107960E9419
:102A5000D80DCE0101960E94D80D609100017091B1
:102A60000101CE0101960E94330D60EE72E0CE01AD
:102A700007960E94790DBE016F5F7F4FCE010796CA
:102A80000E94F50C0E947409CE0107960E94D80D91
:102A9000CE0101960E94D80D609102017091030150
:102AA000CE0101960E94330D68EE72E0CE010796CA
:102AB0000E94790DBE016F5F7F4FCE0107960E9485
:102AC000F50C0E947409CE0107960E94D80DCE0124
:102AD00001960E94D80D84EF92E08FCE6FEF72E0E6
:102AE000C8010E94640C882339F164E071E090E031
:102AF00080E00E940F1A6FEA76E084E090E00E9486
:102B00000F1A63EB76E088E090E00E940F1A67E608
:102B100076E08CE090E00E940F1A60E071E080E1C6
:102B200090E00E94EB1962E071E082E190E00E9487
:102B3000EB1984E093E061CE60E273E0C8010E948B
:102B4000640C882309F4E9C065E371E0CE010796BF
:102B50000E94790DBE01695F7F4FCE0101960E94F0
:102B60005F0D65E273E0CE0101960E94DF0C0E94CA
:102B70007409CE0101960E94D80DCE0107960E94DD
:102B8000D80D8091230565E371E0882309F4ABC07B
:102B9000CE0107960E94790DBE01695F7F4FCE017D
:102BA00001960E945F0D6CE373E0CE0101960E94D6
:102BB000DF0C0E947409CE0101960E94D80DCE014F
:102BC00007960E94D80D4091150750911607609105
:102BD00017077091180722E0CE0101960E94B519DF
:102BE00065E371E0CE010D960E94790DBE01635F31
:102BF0007F4FCE0107960E945F0D63E573E0CE0123
:102C000007960E94DF0CBE016F5F7F4F0E94F50C9C
:102C10000E947409CE0107960E94D80DCE010D9630
:102C20000E94D80DCE0101960E94D80D65E371E097
:102C3000CE0107960E94790DBE01695F7F4FCE01DC
:102C400001960E945F0D69E773E0CE0101960E9434
:102C5000DF0C0E947409CE0101960E94D80DCE01AE
:102C600007960E94D80D60E476E08AEB96E00E9419
:102C7000390368E775E087EB96E00E94390368EE58
:102C800073E080E090E00E94EC0168E775E08AEB79
:102C900096E00E94390360E476E087EB96E00E94BC
:102CA000390368EE73E080E090E00E94EC016CED87
:102CB00075E08AEB96E00E9439036CED75E087EBD6
:102CC00096E00E94390365E371E0CE0107960E9409
:102CD000790DBE01695F7F4FCE0101960E945F0DA5
:102CE00067E973E0B5CACE0107960E94790DBE016F
:102CF000695F7F4FCE0101960E945F0D65E673E02C
:102D0000CE0101960E94DF0C0E947409CE0101964B
:102D10000E94D80DCE01079687CF6CEA73E0CE01F2
:102D200001960E94790DB801CE0101960E94F50C22
:102D30000E947409CE0101960E94D80D97CA8F9205
:102D40009F92AF92BF92CF92DF92EF92FF920F933A
:102D50001F93CF93DF9300D000D000D0CDB7DEB764
:102D60007C01DC01AD90BC901197A114B10439F045
:102D700014960D911C9165010115110569F561EC21
:102D800073E0CE0101960E94790DBE016F5F7F4F07
:102D9000C7010E94490C182FCE0101960E94D80D40
:102DA000112309F453C00E94E00D81E080932205B5
:102DB00026960FB6F894DEBF0FBECDBFDF91CF9140
:102DC0001F910F91FF90EF90DF90CF90BF90AF9049
:102DD0009F908F90089564014601BFEF8B1A9B0A64
:102DE000F6018081082E000C990B0E940227892B86
:102DF00091F7015011090A0D1B1DD8018C91082E65
:102E0000000C990B0E940227892B31F00C151D052F
:102E100018F001501109F1CFA8014F5F5F4F4C1915
:102E20005D09F70155834483AC14BD0420F4B60159
:102E3000C5010E94882ED701ED91FC91119714963F
:102E40008D919C91E80FF91F108299CFC7010E94C4
:102E5000F110AECF1F920F920FB60F9211242F9345
:102E60003F938F939F93AF93BF938091250590914C
:102E70002605A0912705B09128053091240523E06F
:102E8000230F2D3758F50196A11DB11D2093240560
:102E90008093250590932605A0932705B0932805D8
:102EA0008091290590912A05A0912B05B0912C05C0
:102EB0000196A11DB11D8093290590932A05A09329
:102EC0002B05B0932C05BF91AF919F918F913F91AE
:102ED0002F910F900FBE0F901F90189526E8230F8B
:102EE0000296A11DB11DD2CF1F920F920FB60F9265
:102EF00011242F933F934F935F936F937F938F93FF
:102F00009F93AF93BF93EF93FF938FE995E00E9458
:102F1000AA02FF91EF91BF91AF919F918F917F9105
:102F20006F915F914F913F912F910F900FBE0F9036
:102F30001F9018951F920F920FB60F9211242F9386
:102F40008F939F93EF93FF93E091AF05F091B005BE
:102F50008081E091B505F091B60582FD1BC090819E
:102F60008091B8058F5F8F732091B905821741F06A
:102F7000E091B805F0E0E156FA4F958F8093B805DF
:102F8000FF91EF919F918F912F910F900FBE0F9016
:102F90001F9018958081F4CF1F920F920FB60F9259
:102FA00011242F933F934F935F936F937F938F934E
:102FB0009F93AF93BF93CF93DF93EF93FF93809152
:102FC0001005C0916006D0E087FF24C010928500F4
:102FD00010928400809110058F5F8093100580917E
:102FE0001005082E000C990B8C179D0724F4809176
:102FF00010058C30C4F18091840090918500049676
:1030000080349C4908F47AC08091840090918500B6
:10301000049676C080911005082E000C990B8C1731
:103020009D07C4F6E09110058E2FEE0F990BFC0161
:10303000EE0FFF1FE80FF91FE45CF94F808186FF58
:10304000C9CFE09110058E2FEE0F990BFC01EE0F0A
:10305000FF1FE80FF91FE45CF94F808160E08F7378
:103060000E947B01B7CF2091840030918500E091D0
:1030700010058E2FEE0F990BFC01EE0FFF1FE80FCE
:10308000F91FE45CF94F81819281820F931F909325
:10309000890080938800E09110058E2FEE0F990B28
:1030A000FC01EE0FFF1FE80FF91FE45CF94F808170
:1030B00086FF11C0E09110058E2FEE0F990BFC01D9
:1030C000EE0FFF1FE80FF91FE45CF94F808161E00C
:1030D0008F730E947B01FF91EF91DF91CF91BF91A0
:1030E000AF919F918F917F916F915F914F913F91A0
:1030F0002F910F900FBE0F901F90189580E49CE9C0
:1031000090938900809388008FEF80931005E3CF20
:103110001F920F920FB60F9211242F933F934F934C
:103120005F936F937F938F939F93AF93BF93EF932F
:10313000FF938091B900887F803609F44AC0F0F58A
:10314000883209F4A7C018F5803109F49BC0B8F49F
:10315000882309F4F9C0883009F494C0FF91EF91F5
:10316000BF91AF919F918F917F916F915F914F919F
:103170003F912F910F900FBE0F901F90189588319F
:1031800009F488C0803251F78093730514C08034ED
:1031900009F49DC040F48033B9F38833F9F6809385
:1031A000730585ECB0C0803509F485C0883509F415
:1031B00096C0883499F60E94EA0FD0CF883909F476
:1031C0008CC038F5883729F050F4883611F08037F4
:1031D00029F683E08093750510920F0557C0883853
:1031E00009F47BC0803919F0803809F0B7CF80919D
:1031F0000F05803208F071C0E0910F0581E08E0F5D
:1032000080930F058091BB00F0E0E151FB4F80837C
:103210003DC0803B39F0E0F4803A09F479C0883A47
:1032200009F09CCF84E0809375051092EE04109213
:10323000ED04E0911305F091140509958091ED04DA
:1032400081110FC081E08093ED041092CD0409C07C
:10325000803C09F4A6CF883C09F4A3CF883B09F051
:103260007DCFE091EE0481E08E0F8093EE04F0E0DC
:10327000E353FB4F80818093BB009091EE048091DB
:10328000ED0429C0809150058093BB0085EC8093AC
:10329000BC0064CF9091720580917105981758F524
:1032A000E091720581E08E0F80937205F0E0EF5A95
:1032B000FA4F8081E9CFE091720581E08E0F809313
:1032C00072058091BB00F0E0EF5AFA4F8083909135
:1032D0007205809171059817C8F285E8D8CFE09102
:1032E000720581E08E0F809372058091BB00F0E043
:1032F000EF5AFA4F80838091740581115CCF81E091
:1033000080934F0584EA8093BC001092750526CF08
:1033100085EC8093BC001092750580910F0580327A
:1033200030F4E0910F05F0E0E151FB4F1082609125
:103330000F0570E0E0911105F09112058FEE94E019
:10334000099510920F050ACF1092730534CFCF93D1
:10335000DF930E946709EC0182E391E00E94670914
:103360008C0F9D1FDF91CF910895EF92FF920F93E5
:103370001F93CF93DF93CDB7DEB7A1970FB6F89425
:10338000DEBF0FBECDBF7C01CB01BA01F7011182B8
:103390001082138212821582148242E0420F8E0143
:1033A0000F5F1F4F0E94F822009789F0BC01C701F0
:1033B0000E94290DA1960FB6F894DEBF0FBECDBFB7
:1033C000DF91CF911F910F91FF90EF900895C7016A
:1033D0000E94CD0CEFCFFF920F931F93CF93DF93FB
:1033E000EC018B01FB01F0800E945A28F81621F0B5
:1033F0006F2DCE010E946228F801F1802196CE0146
:103400000E945A28F81621F06F2DCE010E946228E2
:10341000C801DF91CF911F910F91FF9008959F9266
:10342000AF92BF92CF92DF92EF92FF920F931F93D2
:10343000CF93DF935C017B018B01D0E0C0E0F8010A
:1034400091908F016501CC0EDD1EC6010E945A28A5
:10345000981621F0692DC6010E9462282196C43079
:10346000D10569F7C701DF91CF911F910F91FF90AF
:10347000EF90DF90CF90BF90AF909F9008954F92C4
:103480005F926F927F928F929F92AF92BF92CF92F4
:10349000DF92EF92FF921092A2051092A10588EEA2
:1034A00093E0A0E0B0E08093A3059093A405A093DF
:1034B000A505B093A60522E131E03093A005209345
:1034C0009F0525EC30E03093AC052093AB0524EC50
:1034D00030E03093AE052093AD0520EC30E0309322
:1034E000B0052093AF0521EC30E03093B205209376
:1034F000B10522EC30E03093B4052093B30526ECFF
:1035000030E03093B6052093B5051092B8051092BF
:10351000B9051092BA051092BB051092C006109220
:10352000BF068093C1069093C206A093C306B093D2
:10353000C40684E291E09093BE068093BD0610928B
:10354000C90688E68093CC068DEB96E09093CB0677
:103550008093CA0688E491EEAAE7BFE3809321072F
:1035600090932207A0932307B09324071092D506C7
:103570001092D6061092D7061092D8061092D9064D
:103580001092DA061092DB061092DC061092DD062D
:103590001092DE061092DF061092E0061092E1060D
:1035A0001092E2061092E3061092E4061092E506ED
:1035B0001092E6061092E7061092E8061092E906CD
:1035C0001092EA061092EB061092EC0680916006CB
:1035D0008C3008F004C191E0980F909360068093BE
:1035E000BA0690E0FC01EE0FFF1FE80FF91FE45C44
:1035F000F94F88EB9BE092838183809160068C3049
:1036000008F0F1C091E0980F909360068093B706A0
:1036100090E0FC01EE0FFF1FE80FF91FE45CF94F8B
:1036200088EB9BE092838183C090B306D090B40670
:10363000E090B506F090B6068090AF069090B00688
:10364000A090B106B090B2064090040150900501E0
:1036500060900601709007018BE696E090939206C9
:10366000809391068FE696E09093900680938F0664
:1036700087E696E090939406809393061092AD06A9
:103680001092A5061092A6061092A7061092A80600
:1036900080E090E0AFE7B3E48093A9069093AA0698
:1036A000A093AB06B093AC0684E690E0A0E0B0E057
:1036B0008093A1069093A206A093A306B093A406BC
:1036C00010928C0610928B0620E030E0A901C30115
:1036D000B2010E94332787FD5AC020E030E0A901E3
:1036E000C501B4010E94332787FD51C020E030E0BE
:1036F000A901C701B6010E94332787FD48C081E0B8
:1037000090E090938E0680938D068093AE06409253
:1037100073065092740660927506709276068092D7
:10372000770690927806A0927906B0927A06C092B7
:103730007B06D0927C06E0927D06F0927E06409257
:103740007F065092800660928106709282062DEC70
:103750003CEC4CEC5DE3C501B4010E9499276093F9
:1037600083067093840680938506909386062DECDD
:103770003CEC4CEC5DE3C701B6010E94C2296093AA
:103780008706709388068093890690938A060E9424
:103790001E02C090A106D090A206E090A306F09071
:1037A000A4066C197D098E099F0960939506709394
:1037B0009606809397069093980664E371E081E6FD
:1037C00096E0FF90EF90DF90CF90BF90AF909F90EA
:1037D0008F907F906F905F904F900C94790D8FEF4A
:1037E0008093BA060ACF8FEF8093B7061DCFCF9391
:1037F000DF93CDB7DEB7A6970FB6F894DEBF0FBE46
:10380000CDBF789484B5826084BD84B5816084BD69
:1038100085B5826085BD85B5816085BD80916E006E
:10382000816080936E00109281008091810082609F
:1038300080938100809181008160809381008091DC
:1038400080008160809380008091B10084608093CB
:10385000B1008091B00081608093B00080917A00C7
:10386000846080937A0080917A00826080937A00ED
:1038700080917A00816080937A0080917A008068DC
:1038800080937A001092C100E091AF05F091B005ED
:1038900082E08083E091AB05F091AC051082E0916D
:1038A000AD05F091AE0580E180831092B705E091FF
:1038B000B305F091B40586E08083E091B105F09105
:1038C000B205808180618083E091B105F091B205FD
:1038D000808188608083E091B105F091B20580819C
:1038E00080688083E091B105F091B20580818F7D81
:1038F000808365E371E0CE010A960E94790DBE01D6
:10390000665F7F4FCE0101960E945F0D66EC73E00B
:10391000CE0101960E94DF0C0E947409CE0101962F
:103920000E94D80DCE010A960E94D80D10922E0545
:1039300010922D0510927C0510929E050E940F0496
:103940008AE292E090931405809313058BE292E053
:1039500090931205809311058CE08093B80065E385
:1039600071E0CE010A960E94790DBE01665F7F4F1D
:10397000CE0101960E945F0D6DED73E0CE010196C0
:103980000E94DF0C0E947409CE0101960E94D80D9E
:10399000CE010A960E94D80D61E08BE60E943E059A
:1039A000182F60E089E10E943E0560E08AE10E94F4
:1039B0003E0580E090E0A3E8B2E48093CD069093CA
:1039C000CE06A093CF06B093D00668E08BE10E94AC
:1039D0003E0580E090E0A0E8B6E48093D1069093A5
:1039E000D206A093D306B093D40660E08CE10E9487
:1039F0003E050E94EE098091090790910A07A09167
:103A00000B07B0910C078093110790931207A093B6
:103A10001307B093140780910D0790910E07A091A2
:103A20000F07B09110078093150790931607A09386
:103A30001707B09318070E941E0260931D0770932A
:103A40001E0780931F0790932007112309F4A8C035
:103A50001B861A861D861C861F861E864AE0BE01AE
:103A60006F5F7F4F812F90E00E946123BE016F5FE7
:103A70007F4FCE010A960E94290D65E371E0CE01C9
:103A800040960E94790DBE01605F7F4FCE01019686
:103A90000E945F0D66EF73E0CE0101960E94DF0C7D
:103AA000BE01665F7F4F0E94F50C0E947409CE0133
:103AB00001960E94D80DCE0140960E94D80DCE01ED
:103AC0000A960E94D80D81E0809322050E941E0272
:103AD0006E8B7F8B888F998F80912305882309F4C3
:103AE00062C28091220581115EC20E94EE09C090DF
:103AF0001507D0901607E0901707F0901807C092AE
:103B00006F06D0927006E0927106F0927206A701DD
:103B10009601C701B6010E94902B811115C020E0CB
:103B200030E0A901C701B6010E94E92A18160CF07D
:103B300030C220E030E044EB52E4C701B6010E94FD
:103B4000E92A18160CF02FC265E371E0CE010A963F
:103B50000E94790DBE01665F7F4FCE0101960E94E3
:103B60005F0D61EA74E0CE0101960E94DF0C0E94B5
:103B70007409CE0101960E94D80DCE010A960E94CA
:103B8000D80D0E94E00DA0E0B0E0AB2B09F49ECF71
:103B90000E949602882309F499CF0E94000096CFD4
:103BA00065E371E0CE010A960E94790DBE01665F61
:103BB0007F4FCE0101960E945F0D6FE174E0CE0150
:103BC00001960E94DF0C0E947409CE0101960E94AA
:103BD000D80DCE010A960E94D80D65E371E0CE01A2
:103BE0000A960E94790DBE01665F7F4FCE01019655
:103BF0000E945F0D6EE374E0CE0101960E94DF0C1F
:103C00000E947409CE0101960E94D80DCE010A9639
:103C10000E94D80D0E94170881E08093230565E378
:103C200071E0CE010A960E94790DBE01665F7F4F5A
:103C3000CE0101960E945F0D65E574E0CE0101960C
:103C40000E94DF0C0E947409CE0101960E94D80DDB
:103C5000CE010A960E94D80D69E070E08AEB96E0EA
:103C60000E9470036AE070E087EB96E00E947003A8
:103C700068EE73E08AEB96E00E94390368EE73E029
:103C800087EB96E00E94390368EB7BE080E090E0F0
:103C90000E94EC0165E371E0CE010A960E94790D65
:103CA000BE01665F7F4FCE0101960E945F0D6AE6FE
:103CB00074E0CE0101960E94DF0C0E947409CE01CF
:103CC00001960E94D80DCE010A960E94D80D64E09C
:103CD00071E090E080E00E943610609104017091E4
:103CE000050180910601909107019B01AC010E94A2
:103CF000902B882361F080E090E0A0E2B1E4809313
:103D0000040190930501A0930601B09307016FEAA7
:103D100076E084E090E00E9436106091AF067091EA
:103D2000B0068091B1069091B2069B01AC010E9451
:103D3000902B882341F01092AF061092B00610929B
:103D4000B1061092B20663EB76E088E090E00E9444
:103D500036106091B3067091B4068091B5069091CB
:103D6000B6069B01AC010E94902B882341F0109273
:103D7000B3061092B4061092B5061092B60667E626
:103D800076E08CE090E00E943610609167067091BA
:103D900068068091690690916A069B01AC010E94B9
:103DA000902B882341F010926706109268061092BB
:103DB000690610926A0660E071E080E190E00E947E
:103DC00022108091000190910101853F914030F0D7
:103DD00080E991E0909301018093000162E071E03D
:103DE00082E190E00E9422108091020190910301F3
:103DF000885E9340893E934030F08CED95E090933F
:103E00000301809302018091AD06811149C0E091C8
:103E10009106F0919206C080D180E280F380C0923A
:103E20009906D0929A06E0929B06F0929C06E09149
:103E30008F06F091900680819181A281B381809359
:103E40009D0690939E06A0939F06B093A006809037
:103E5000A9069090AA06A090AB06B090AC06A5016A
:103E60009401C701B6010E94E92A18164CF4809209
:103E7000990690929A06A0929B06B0929C0610C05A
:103E80008090A5069090A606A090A706B090A806E0
:103E9000A5019401C701B6010E94332787FDE7CF32
:103EA00081E08093AD066091A1067091A206809199
:103EB000A3069091A4060E9438279B01AC0160E004
:103EC00070E080E291E40E94C2296B017C01AC01A8
:103ED0009B01609183067091840680918506909184
:103EE00086060E94992760938306709384068093C8
:103EF000850690938606A7019601609187067091CA
:103F000088068091890690918A060E94C229609352
:103F10008706709388068093890690938A068AE0C4
:103F200090E0A0E0B0E08093A1069093A206A09359
:103F3000A306B093A4060E941F0E65E371E0CE01B4
:103F40000A960E94790DBE01665F7F4FCE010196F1
:103F50000E945F0D66E874E0CE0101960E94DF0CBE
:103F60000E947409CE0101960E94D80DCE010A96D6
:103F70000E94D80D67E872E0CE0101960E94790D8B
:103F8000CE0101960E949F16CE0101960E94D80D87
:103F90009DCD20E030E044EB52ECC701B6010E9419
:103FA000332787FDD1CD80911E0590911F05A091EB
:103FB0002005B09121052E893F89488D598D281BF8
:103FC000390B4A0B5B0BDA01C9010A97A105B10550
:103FD00008F4FFC1809122058111FBC18E899F8960
:103FE000A88DB98D80931E0590931F05A093200581
:103FF000B09321058091AD06882309F4EAC10E949F
:104000001E026A8F7B8F8C8F9D8F80919506909179
:104010009606A0919706B09198064A8D5B8D6C8D9F
:104020007D8D481B590B6A0B7B0B8091A1069091EB
:10403000A206A091A306B091A406481759076A07E3
:104040007B0708F4C6C1E0918F06F091900680804E
:104050009180A280B380E0919306F0919406A5012F
:10406000940160817181828193810E94E3282B01F8
:104070003C0120919D0630919E0640919F065091F3
:10408000A006C501B4010E94E3286E8F7F8F88A32C
:1040900099A3209183063091840640918506509122
:1040A0008606C301B2010E9499272091990630919A
:1040B0009A0640919B0650919C060E94E4286B0151
:1040C0007C01C0929906D0929A06E0929B06F092EB
:1040D0009C069091AE069AA391111CC020917F0678
:1040E0003091800640918106509182066E8D7F8DC1
:1040F00088A199A10E9499279B01AC01C701B60133
:104100000E94E3286093990670939A0680939B0619
:1041100090939C06C0909906D0909A06E0909B06DA
:10412000F0909C061091A9060091AA063090AB066B
:104130002090AC06212F302F432D522DC701B60100
:104140000E94E92A18160CF08AC1812F902FA32D06
:10415000B22D8093990690939A06A0939B06B093F4
:104160009C069AA1C12CD12C7601992371F0209143
:104170007F06309180064091810650918206C301EE
:10418000B2010E9499276B017C0120918706309132
:1041900088064091890650918A066E8D7F8D88A190
:1041A00099A10E9499279B01AC0160919906709199
:1041B0009A0680919B0690919C060E94E328A70195
:1041C00096010E94E4286B017C019B01AC01612FE8
:1041D000702F832D922D0E94332787FD16C01091DA
:1041E000A5060091A6063090A7062090A806212FCC
:1041F000302F432D522DB601C7010E94332787FD72
:1042000004C01C2D0D2D3E2C2F2CE0919106F09119
:104210009206812F902FA32DB22D80839183A283AC
:10422000B38380929D0690929E06A0929F06B092C4
:10423000A0062A8D3B8D4C8D5D8D20939506309385
:1042400096064093970650939806609102017091EC
:104250000301072E000C880B990B0E943A272B01B3
:104260003C01C0906B06D0906C06E0906D06F0901B
:104270006E06A70196010E94E3284B015C0120E035
:1042800030E04AE754E40E94332798EE292E93E069
:10429000392E87FD10C020E030E04AEF54E4C5011C
:1042A000B4010E94E92A18160CF4F0C0C501B4014B
:1042B0000E94342A1B01A7019601C301B2010E948A
:1042C000E4284B015C0120E030E04AE754E40E941E
:1042D000332708EE13E087FD11C020E030E04AEFFD
:1042E00054E4C501B4010E94E92A00ED17E0181654
:1042F0002CF0C501B4010E94342A8B01B1018AEB74
:1043000096E00E943903B80187EB96E00E943903DA
:1043100080911A0590911B05A0911C05B0911D0577
:104320002E893F89488D598D281B390B4A0B5B0B11
:10433000DA01C901C297A105B10508F44AC080910C
:104340001905811146C08E899F89A88DB98D8093EA
:104350001A0590931B05A0931C05B0931D054AE018
:10436000BC01CD010E94890989EE91E00E94670994
:1043700080906F0690907006A0907106B0907206C3
:10438000A5019401C501B4010E94902B882309F472
:1043900082C080EC94E00E94670989EE91E00E945F
:1043A0006709B101330C880B990B97FF06C10E9476
:1043B000CD0989EE91E00E946709B801110F880BC1
:1043C000990B97FFFEC00E94CD0982E391E00E9405
:1043D00067098091150590911605A0911705B09178
:1043E00018052E893F89488D598D281B390B4A0B9A
:1043F0005B0BDA01C9010597A105B10508F4C3CB30
:104400008E899F89A88DB98D809315059093160587
:10441000A0931705B09318058FE995E00E948A02D2
:10442000892B09F4B0CB8FE995E00E9468028A30AD
:1044300009F0CBC061E676E0CE0101960E945F0DE7
:10444000CE0101960E949F16CE0101960E94D80DC2
:1044500064E371E081E696E00E94290DDDCF2091B2
:10446000A5063091A6064091A7065091A8062BA359
:104470003CA34DA35EA3C701B6010E94332787FF6B
:1044800070CE8BA19CA1ADA1BEA163CE80ED282EE4
:1044900087E0382E10CF24013501E89477F82FEF0C
:1044A0003FEF4FE75FE7C301B2010E94902B8111FC
:1044B0000DC02FEF3FEF4FE75FE7C301B2010E944E
:1044C000332718161CF484EC94E065CF2FEF3FEFF0
:1044D0004FE75FE4C501B4010E94E92A18161CF4F5
:1044E00088EC94E058CF2FEF3FEF4FE75FECC5012A
:1044F000B4010E94332787FDF3CF20E030E0A9010B
:10450000C501B4010E94332787FF09C06DE28FE91E
:1045100095E00E94CC02B7FAB094B7F8B0942AE0C4
:1045200037ED43EA5BE3C501B4010E94E4282B01A7
:104530003C010E943B2A4B015C010E9438279B01F1
:10454000AC01C301B2010E94E3282B013C014AE007
:10455000C501B4010E9489096EE28FE995E00E94CD
:10456000CC0220E030E040E251E4C301B2010E94FD
:1045700099272B013C010E943B2A4B01B12CA12C15
:104580004AE0C501B4010E948909C501B4010E9435
:1045900038279B01AC01C301B2010E94E32820E04F
:1045A00030E040E251E40E9499270E943B2A90E0CB
:1045B00080E04AE00E948909F0CE4AE00E94890921
:1045C000F8CE4AE00E94890900CF8D3009F424CF4B
:1045D00089831A8241E050E0BE016F5F7F4F81E620
:1045E00096E00E94A10C18CF81E696E00C94D80DBD
:1045F000EF920F931F93CF93DF93E80134E047FDD1
:1046000034E1042E000C550B57FF03C05195419522
:104610005109E32E022F242FAE010E947B23CE01ED
:10462000DF91CF911F910F91EF9008956627772723
:104630000C94DA241F93FC0199278827BC01E89485
:1046400011911032E9F3193010F01E30C8F31B320B
:1046500051F01D3249F4689406C00E944C23610F4A
:10466000711D811D911D119110531A30B0F33EF44C
:1046700090958095709561957F4F8F4F9F4F1F91BB
:104680000895BB274A3031F4992322F4BDE2909576
:1046900081959F4F0C946223592F482F372F262F37
:1046A000660F771F881F991F660F771F881F991F36
:1046B000620F731F841F951F660F771F881F991F36
:1046C0000895BB27FB015527AA27880F991FAA1F0A
:1046D000A41710F0A41B83955051B9F7A05DAA331D
:1046E00008F0A95DA193009779F7B111B1931192E8
:1046F000CB010C942327A9E0B0E0E1E8F3E20C94AD
:1047000081286A01F22EB02E102FFBE3AF2EA016E7
:1047100008F41BE31F5F012F27E0AE014F5F5F4FDF
:104720000E942A26BC018981982F9970913009F442
:104730003FC09BE2E1FC04C09E2D9170E0FC3AC0BA
:104740005E2D5071E82FE87083FF46C084E0911120
:1047500001C083E0EF2DE81B8F1508F0E0E0D601E3
:104760008E2F20E2552351F1992329F0D6019C93F5
:10477000C60101966C0196012D5F3F4FE2FE24C0F9
:104780008EE4D6018C9391E411969C931197129626
:104790008C93D9018E2F90E281111BC0E20FF32F71
:1047A000F11D10828EEF9FEF2996ECE00C949D286E
:1047B0009DE2C6CF90E2C4CF2D9381508111FCCFF2
:1047C000CE0ED11CE0E0D0CF8EE6D6018C9391E6E0
:1047D000DBCF9D938150E0CF482F447082FF3DC0D6
:1047E00084E0911101C083E08F1510F4EF2DE81BD8
:1047F000D6018E2F20E2552309F1992329F0D60105
:104800009C93C60101966C0196012D5F3F4FE2FE1D
:104810001BC089E4D6018C938EE411968C9311977A
:1048200086E412968C93D9018E2F90E2882309F4A6
:10483000B5CF9D938150FACF2D9381508111FCCF3C
:10484000CE0ED11CE0E0D9CF89E6D6018C938EE65E
:1048500011968C93119786E6E4CF9B0177FF02C0F7
:1048600030E020E0A1E0B0E0911102C0B0E0A0E0B3
:10487000F9013196AE0FBF1F8B2C912CBB2009F490
:1048800061C05401EFEFAE1ABE0AAA0DBB1DFA16A5
:104890001B0619F014F04F2D4A1B511188C0E3FC80
:1048A00059C07601A42FB0E2A1114FC0C40ED11C93
:1048B000992309F45BC040E0D6011196F60190837C
:1048C0006D01552309F448C0012F060F9A81582F16
:1048D000507184FF03C0913309F4015010160CF09D
:1048E00047C0093008F008E0EEE2FE2E5B01A01A96
:1048F000B10885019194819491082F3F320729F4E2
:10490000D601FC92F60131966F016217730794F19C
:10491000021713077CF5DB01A21BB30BAA24A39497
:10492000B12CAC0EBD1EAA0DBB1D11968C91215051
:104930003109D601119628153905F4F0F601808366
:104940006D01DBCFB12CA12CA0CFF701B1937F017A
:10495000A150AACF9111B0CFD601942F50E302C03D
:104960005D9391509111FCCFC40ED11C40E0ACCFAF
:1049700001E0BACF80E3DBCF6217730731F49633DF
:1049800088F4953311F4552369F0F6018083FD0115
:10499000842F90E2811108C0A40FB11D1C9290E0F9
:1049A00080E002CF81E3F1CF91938150F3CF911159
:1049B00083CF8ACFB0E0A0E0E0EEF4E20C9481284F
:1049C0005C017B016115710519F0DB018D939C93EE
:1049D00085010F5F1F4FF501D0818D2F90E00E9460
:1049E00002276C01892BB9F5DD32B9F50F5F1F4F36
:1049F000D5011196DC91C1E05801F1E0AF1AB10880
:104A000043E050E060E271E0C5010E940B27892B72
:104A100069F5680182E0C80ED11C45E050E06BE109
:104A200071E0C6010E940B27892B21F4680197E0F1
:104A3000C90ED11CE114F10419F0D701CD92DC921A
:104A400060E070E080E89FEFC111FFC060E070E0BF
:104A500080E89FE7FAC05801BBCFDB3229F485011B
:104A60000E5F1F4FF501D181C0E0C6CF43E050E09B
:104A700068E171E0C5010E940B27892BE9F0F8017C
:104A800010E000E020E030E0A9015F01B0ED8B2EE6
:104A90008D0E89E08815C8F19C2E689491F88C2FB2
:104AA0008870C2FF16C0811102C00F5F1F4F319680
:104AB000D501DC91C92DE9CFE114F10429F00E5F95
:104AC0001F4FF7011183008360E070E080EC9FE7E7
:104AD000BCC0882311F001501109A5E0B0E00E948C
:104AE00070289B01AC01220F331F441F551F280D56
:104AF000311D411D511D283999E93907490799E1AF
:104B00005907A8F2C6609C2ED2CFAEEF8A1206C01B
:104B1000C3FD3CC09C2E689493F8C9CFDF7DD5348B
:104B2000A9F580818D3239F4C061DF01129681814F
:104B300062E070E006C0DF018B32C1F3119661E0E4
:104B400070E080535D01A61AB70A8A30F8F4E0E8F5
:104B5000CE16ECE0DE065CF4B601660F771F660F3A
:104B6000771FC60ED71ECC0CDD1CC80ED11C5D01F4
:104B7000FFEFAF1ABF0A8C9180538A30A8F1C4FFAF
:104B800003C0D194C194D1080C0D1D1DC1FF09C0F3
:104B9000E114F10431F081E0A81AB108D701AD9217
:104BA000BC92CA01B9010E943827C370C33009F40E
:104BB00090584B015C0120E030E0A9010E943327AE
:104BC000882309F440C0CFE4D1E017FF05C0119558
:104BD00001951109C7E3D1E06E01B8E1CB1AD10804
:104BE00080E2E82EF12C0FC0D501B1CFFE01259156
:104BF0003591459154910E191F09C501B4010E94C8
:104C000099274B015C01D501C4010E151F0574F7EE
:104C10002497F594E794CC16DD06A9F78A2F880F20
:104C20008B2F881F8F3F49F020E030E0A901C5019C
:104C3000B4010E943327811106C082E290E0909374
:104C4000260780932507C501B401CDB7DEB7ECE098
:104C50000C949D28283008F027E03327DA01990FBB
:104C6000311D87FD916000966105710539F4326050
:104C70002E5F3D9330E32A95E1F708959F3F30F092
:104C800080387105610509F03C5F3C5F3D939130D0
:104C900008F08068911DDF93CF931F930F93FF92CD
:104CA000EF92192F987F9695E92F96959695E90F93
:104CB000FF27E355FE4F99273327EE24FF24A70152
:104CC000E70105900894079428F4360FE71EF81EB4
:104CD000491F511D660F771F881F991F0694A1F762
:104CE0000590079428F4E70EF81E491F561FC11DB2
:104CF000770F881F991F661F0694A1F705900794E8
:104D000028F4F80E491F561FC71FD11D880F991F81
:104D1000661F771F0694A1F70590079420F4490FAA
:104D2000561FC71FD81F990F661F771F881F06942D
:104D3000A9F784911095177041F0D695C7955795AE
:104D40004795F794E7941A95C1F7E3E5F1E0689485
:104D50001590159135916591959105907FE2739528
:104D6000E118F10A430B560BC90BD009C0F7E10C4F
:104D7000F11E431F561FC91FD01D7EF4703311F45E
:104D80008A95E6CFE894015030F0080F0AF4002726
:104D9000021708F4202F2395022F7A3328F079E3A5
:104DA0007D932A95E9F710C07D932A9589F606949C
:104DB00097956795379517951794E118F10A430B66
:104DC000560BC90BD00998F023957E9173957A33D1
:104DD00008F070E37C932013B8F77E9170617D93A7
:104DE00030F0839571E37D9370E32A95E1F7112408
:104DF000EF90FF900F911F91CF91DF91992787FD41
:104E00009095089591110C940628803219F08950DC
:104E10008550C8F70895FB01DC014150504088F0EF
:104E20008D9181341CF08B350CF4805E659161347A
:104E30001CF06B350CF4605E861B611171F3990BED
:104E40000895881BFCCFDC01FC01672F719177234B
:104E5000E1F7329704C07C916D9370836291AE1735
:104E6000BF07C8F308950E94752708F481E00895EC
:104E7000E89409C097FB3EF49095809570956195F4
:104E80007F4F8F4F9F4F9923A9F0F92F96E9BB27AA
:104E90009395F695879577956795B795F111F8CF26
:104EA000FAF4BB0F11F460FF1BC06F5F7F4F8F4F91
:104EB0009F4F16C0882311F096E911C0772321F087
:104EC0009EE8872F762F05C0662371F096E8862F1F
:104ED00070E060E02AF09A95660F771F881FDAF776
:104EE000880F9695879597F90895990F0008550FA3
:104EF000AA0BE0E8FEEF16161706E807F907C0F060
:104F000012161306E407F50798F0621B730B840B67
:104F1000950B39F40A2661F0232B242B252B21F441
:104F200008950A2609F4A140A6958FEF811D811DE1
:104F300008950E94AC270C9420280E94122838F073
:104F40000E94192820F0952311F00C9409280C9444
:104F50000F2811240C9454280E94312870F3959F37
:104F6000C1F3950F50E0551F629FF001729FBB2760
:104F7000F00DB11D639FAA27F00DB11DAA1F649FFC
:104F80006627B00DA11D661F829F2227B00DA11DAF
:104F9000621F739FB00DA11D621F839FA00D611D35
:104FA000221F749F3327A00D611D231F849F600D56
:104FB000211D822F762F6A2F11249F5750409AF07F
:104FC000F1F088234AF0EE0FFF1FBB1F661F771F0B
:104FD000881F91505040A9F79E3F510580F00C94D6
:104FE00009280C9454285F3FE4F3983ED4F3869547
:104FF00077956795B795F795E7959F5FC1F7FE2B76
:10500000880F911D9695879597F908959927882778
:10501000089597F99F6780E870E060E008959FEF3A
:1050200080EC089500240A9416161706180609063F
:10503000089500240A94121613061406050608950E
:10504000092E0394000C11F4882352F0BB0F40F496
:10505000BF2B11F460FF04C06F5F7F4F8F4F9F4FD6
:10506000089557FD9058440F551F59F05F3F71F058
:105070004795880F97FB991F61F09F3F79F08795BF
:105080000895121613061406551FF2CF4695F1DF48
:1050900008C0161617061806991FF1CF86957105D8
:1050A000610508940895E894BB2766277727CB010C
:1050B00097F90895F999FECF92BD81BDF89A992785
:1050C00080B50895262FF999FECF1FBA92BD81BDF4
:1050D00020BD0FB6F894FA9AF99A0FBE019608957A
:1050E0000E94D428A59F900DB49F900DA49F800D81
:1050F000911D112408952F923F924F925F926F92CB
:105100007F928F929F92AF92BF92CF92DF92EF9257
:10511000FF920F931F93CF93DF93CDB7DEB7CA1BD8
:10512000DB0B0FB6F894DEBF0FBECDBF09942A8803
:10513000398848885F846E847D848C849B84AA84AB
:10514000B984C884DF80EE80FD800C811B81AA8138
:10515000B981CE0FD11D0FB6F894DEBF0FBECDBF03
:10516000ED010895A1E21A2EAA1BBB1BFD010DC083
:10517000AA1FBB1FEE1FFF1FA217B307E407F50707
:1051800020F0A21BB30BE40BF50B661F771F881FE3
:10519000991F1A9469F760957095809590959B0179
:1051A000AC01BD01CF010895A29FB001B39FC00122
:1051B000A39F700D811D1124911DB29F700D811D43
:1051C0001124911D08955058BB27AA270E94FB283F
:1051D0000C9420280E94122838F00E94192820F0F0
:1051E00039F49F3F19F426F40C940F280EF4E0953F
:1051F000E7FB0C940928E92F0E94312858F3BA17CD
:10520000620773078407950720F079F4A6F50C94DC
:1052100053280EF4E0950B2EBA2FA02D0B01B901E7
:1052200090010C01CA01A0011124FF27591B99F01C
:10523000593F50F4503E68F11A16F040A22F232F28
:10524000342F4427585FF3CF469537952795A79578
:10525000F0405395C9F77EF41F16BA0B620B730B1F
:10526000840BBAF09150A1F0FF0FBB1F661F771F90
:10527000881FC2F70EC0BA0F621F731F841F48F445
:10528000879577956795B795F7959E3F08F0B0CFCE
:105290009395880F08F09927EE0F979587950895B5
:1052A0000E94122860F080E891E009F49EEF0E94CD
:1052B000192828F040E851E071F45EEF0CC00C941E
:1052C0000F280C945328E92FE0780E94312840F3EE
:1052D000092E052AB1F3261737074807590738F072
:1052E0000E2E07F8E02569F0E025E0640AC0EF63C0
:1052F00007F8009407FADB01B9019D01DC01CA013E
:10530000AD01EF930E94D9290E9420280E94932981
:105310005F91552339F02BED3FE049E450FD49EC16
:105320000C94E4280895DF93DD27B92FBF7740E878
:105330005FE31616170648075B0718F4D92F0E947B
:10534000EE2A9F938F937F936F930E948C2BE8E6B6
:10535000F0E00E94AA2A0E9420282F913F914F91AD
:105360005F910E94AC27DD2351F09058A2EA2AED0C
:105370003FE049EC5FE3D0785D270E94FB28DF9196
:105380000C9420280E94D6290C9420280E941928C9
:1053900058F00E94122840F029F45F3F29F00C9445
:1053A000092851110C9454280C940F280E9431287C
:1053B00068F39923B1F3552391F3951B550BBB2744
:1053C000AA2762177307840738F09F5F5F4F220F89
:1053D000331F441FAA1FA9F335D00E2E3AF0E0E880
:1053E00032D091505040E695001CCAF72BD0FE2FCA
:1053F00029D0660F771F881FBB1F2617370748075E
:10540000AB07B0E809F0BB0B802DBF01FF27935815
:105410005F4F3AF09E3F510578F00C9409280C94A8
:1054200054285F3FE4F3983ED4F3869577956795CB
:10543000B795F7959F5FC9F7880F911D969587954A
:1054400097F90895E1E0660F771F881FBB1F621769
:1054500073078407BA0720F0621B730B840BBA0B27
:10546000EE1F88F7E09508950E943B2A6894B111D9
:105470000C94542808950E94392888F09F5798F07A
:10548000B92F9927B751B0F0E1F0660F771F881F49
:10549000991F1AF0BA95C9F714C0B13091F00E9463
:1054A0005328B1E008950C945328672F782F88274C
:1054B000B85F39F0B93FCCF3869577956795B3958A
:1054C000D9F73EF490958095709561957F4F8F4FF9
:1054D0009F4F08950E94D12A90F09F3748F4911170
:1054E00016F00C94542860E070E080E89FEB08957B
:1054F00026F41B16611D711D811D0C94812A0C94CC
:105500009C2A882371F4772321F09850872B762FDB
:1055100007C0662311F499270DC09051862B70E0C7
:1055200060E02AF09A95660F771F881FDAF7880FD8
:105530009695879597F908959F3F31F0915020F403
:10554000879577956795B795880F911D969587955F
:1055500097F90895DF93CF931F930F93FF92EF92E4
:10556000DF927B018C01689406C0DA2EEF010E9465
:10557000AC27FE01E894A59125913591459155916F
:10558000A6F3EF010E94FB28FE019701A801DA941F
:1055900069F7DF90EF90FF900F911F91CF91DF910E
:1055A00008950E943928A0F0BEE7B91788F4BB27F8
:1055B0009F3860F41616B11D672F782F8827985FE3
:1055C000F7CF869577956795B11D93959639C8F372
:1055D00008950E94752708F48FEF08959B01AC0190
:1055E00060E070E080E89FE30C94C229FA01EE0FBE
:1055F000FF1F309621053105A1F16115710561F498
:105600008038BFE39B0749F168949038810561F0C9
:105610008038BFEF9B0741F099234AF5FF3FE10532
:105620003105210519F1E8940894E795D901AA23D9
:1056300029F4AB2FBE2FF85FD0F310C0FF5F70F4DA
:10564000A695E0F7F73950F019F0FF3A38F49F7754
:105650009F930DD00F9007FC9058089546F00C943E
:105660000F2860E070E080E89FE308954FE79F77A0
:105670005F934F933F932F930E94182C2F913F914C
:105680004F915F910E9499270C949D2B19F416F469
:105690000C940F280C949C2A0E943928B8F3992363
:1056A000C9F3B6F39F57550B87FF0E94CF2B0024F9
:1056B000A0E640EA900180585695979528F4805CC2
:1056C000660F771F881F20F026173707480730F42A
:1056D000621B730B840B202931294A2BA695179442
:1056E0000794202531254A2758F7660F771F881F12
:1056F00020F026173707480730F4620B730B840B32
:10570000200D311D411DA09581F7B901842F9158BD
:10571000880F9695879508959B01AC010C94992765
:105720000E947527880B990B089529F416F00C94A4
:1057300009280C9453280C940F280E943928A8F3A8
:105740009638A0F707F80F92E8942BE33AEA48EB73
:105750005FE70E94AF270F920F920F924DB75EB78F
:105760000F920E94602CE5E9F0E00E94AA2A4F9176
:105770005F91EF91FF91E595EE1FFF1F49F0FE57F6
:10578000E0684427EE0F441FFA95E1F74195550B69
:105790000E94DA2B0F9007FE0C94EE2A0895915088
:1057A0005040660F771F881FD2F708950C94092880
:1057B0000C949C2A0E943928D8F39923C9F3940F9A
:1057C000511DA3F39150504094F059F0882332F0CA
:1057D000660F771F881F91505040C1F79E3F5105BB
:1057E0002CF7880F911D9695879597F908955F3F3F
:1057F000ACF0983E9CF0BB27869577956795B7955A
:1058000008F4B1609395C1F7BB0F58F711F460FF2E
:10581000E8CF6F5F7F4F8F4F9F4FE3CF0C9454289B
:1058200016F00C949C2A0C940F2868940C94092868
:105830000E943928A8F39923C1F3AEF3DF93CF93E5
:105840001F930F93FF92C92FDD2788232AF02197FA
:10585000660F771F881FDAF720E030E040E85FEB43
:105860009FE3883920F0803E38F021968F770E94A0
:10587000E428EDEBF0E004C00E94E428EAEEF0E05A
:105880000E94AA2A8B01BE01EC01FB2E6F57710901
:105890007595771F880B990B0E943A2728E132E70C
:1058A00041E35FE30E94AC27AF2D9801AE01FF906A
:1058B0000F911F91CF91DF910E94FB280C9420281B
:1058C000FA01DC01AA0FBB1F9B01AC01BF5728F4F2
:1058D000222733274427507820C0B75190F4AB2FAC
:1058E0000024469537952795011CA395D2F30020F7
:1058F00071F0220F331F441FB395DAF30ED00C94CE
:10590000E32861307105A0E88A07B94630F49B01AD
:10591000AC016627772788279078309621F020837E
:105920003183428353830895991B79E004C0991F02
:10593000961708F0961B881F7A95C9F780950895E9
:10594000EE0FFF1F0590F491E02D09940F931F9324
:10595000CF93DF938230910510F482E090E0E091E4
:105960002907F0912A0730E020E0B0E0A0E030976E
:1059700099F42115310509F44AC0281B390B24304C
:105980003105D8F58A819B816115710589F1FB018B
:1059900093838283FE0111C0408151810281138172
:1059A00048175907E0F04817590799F4109761F024
:1059B00012960C93129713961C933296CF01DF9197
:1059C000CF911F910F9108950093290710932A07F3
:1059D000F4CF2115310551F04217530738F0A901D2
:1059E000DB019A01BD01DF01F801C1CFEF01F9CF61
:1059F00090932A0780932907CDCFFE01E20FF31F72
:105A0000819391932250310939832883D7CF2091F4
:105A1000270730912807232B41F420910A01309168
:105A20000B0130932807209327072091080130911C
:105A300009012115310541F42DB73EB740910C0104
:105A400050910D01241B350BE0912707F091280799
:105A5000E217F307A0F42E1B3F0B2817390778F045
:105A6000AC014E5F5F4F2417350748F04E0F5F1FA4
:105A70005093280740932707819391939FCFF0E09D
:105A8000E0E09CCFCF93DF930097E9F0FC013297E1
:105A900013821282A0912907B0912A07ED0130E00C
:105AA00020E01097A1F420813181820F931F209173
:105AB0002707309128072817390709F061C0F093AC
:105AC0002807E0932707DF91CF910895EA01CE17C9
:105AD000DF07E8F54A815B819E0141155105B1F769
